{
  "_format": "hh-sol-artifact-1",
  "contractName": "PaymentSplitterV2",
  "sourceName": "contracts/PaymentSplitterV2.sol",
  "abi": [
    {
      "inputs": [
        {
          "internalType": "address[]",
          "name": "payees",
          "type": "address[]"
        },
        {
          "internalType": "uint256[]",
          "name": "shares_",
          "type": "uint256[]"
        }
      ],
      "stateMutability": "payable",
      "type": "constructor"
    },
    {
      "anonymous": false,
      "inputs": [
        {
          "indexed": true,
          "internalType": "contract IERC20",
          "name": "token",
          "type": "address"
        },
        {
          "indexed": false,
          "internalType": "address",
          "name": "to",
          "type": "address"
        },
        {
          "indexed": false,
          "internalType": "uint256",
          "name": "amount",
          "type": "uint256"
        }
      ],
      "name": "ERC20PaymentReleased",
      "type": "event"
    },
    {
      "anonymous": false,
      "inputs": [
        {
          "indexed": false,
          "internalType": "address",
          "name": "from",
          "type": "address"
        },
        {
          "indexed": false,
          "internalType": "uint256",
          "name": "tokenID",
          "type": "uint256"
        }
      ],
      "name": "ERC721Received",
      "type": "event"
    },
    {
      "anonymous": false,
      "inputs": [
        {
          "indexed": false,
          "internalType": "address",
          "name": "account",
          "type": "address"
        },
        {
          "indexed": false,
          "internalType": "uint256",
          "name": "shares",
          "type": "uint256"
        }
      ],
      "name": "PayeeAdded",
      "type": "event"
    },
    {
      "anonymous": false,
      "inputs": [
        {
          "indexed": false,
          "internalType": "address",
          "name": "from",
          "type": "address"
        },
        {
          "indexed": false,
          "internalType": "uint256",
          "name": "amount",
          "type": "uint256"
        }
      ],
      "name": "PaymentReceived",
      "type": "event"
    },
    {
      "anonymous": false,
      "inputs": [
        {
          "indexed": false,
          "internalType": "address",
          "name": "to",
          "type": "address"
        },
        {
          "indexed": false,
          "internalType": "uint256",
          "name": "amount",
          "type": "uint256"
        }
      ],
      "name": "PaymentReleased",
      "type": "event"
    },
    {
      "inputs": [
        {
          "internalType": "address",
          "name": "",
          "type": "address"
        },
        {
          "internalType": "address",
          "name": "",
          "type": "address"
        },
        {
          "internalType": "uint256",
          "name": "_tokenid",
          "type": "uint256"
        },
        {
          "internalType": "bytes",
          "name": "",
          "type": "bytes"
        }
      ],
      "name": "onERC721Received",
      "outputs": [
        {
          "internalType": "bytes4",
          "name": "",
          "type": "bytes4"
        }
      ],
      "stateMutability": "nonpayable",
      "type": "function"
    },
    {
      "inputs": [
        {
          "internalType": "uint256",
          "name": "index",
          "type": "uint256"
        }
      ],
      "name": "payee",
      "outputs": [
        {
          "internalType": "address",
          "name": "",
          "type": "address"
        }
      ],
      "stateMutability": "view",
      "type": "function"
    },
    {
      "inputs": [
        {
          "internalType": "address",
          "name": "account",
          "type": "address"
        }
      ],
      "name": "releasable",
      "outputs": [
        {
          "internalType": "uint256",
          "name": "",
          "type": "uint256"
        }
      ],
      "stateMutability": "view",
      "type": "function"
    },
    {
      "inputs": [
        {
          "internalType": "contract IERC20",
          "name": "token",
          "type": "address"
        },
        {
          "internalType": "address",
          "name": "account",
          "type": "address"
        }
      ],
      "name": "releasable",
      "outputs": [
        {
          "internalType": "uint256",
          "name": "",
          "type": "uint256"
        }
      ],
      "stateMutability": "view",
      "type": "function"
    },
    {
      "inputs": [
        {
          "internalType": "contract IERC721",
          "name": "token",
          "type": "address"
        },
        {
          "internalType": "address",
          "name": "account",
          "type": "address"
        }
      ],
      "name": "releasableERC721",
      "outputs": [
        {
          "internalType": "uint256",
          "name": "",
          "type": "uint256"
        }
      ],
      "stateMutability": "view",
      "type": "function"
    },
    {
      "inputs": [
        {
          "internalType": "address payable",
          "name": "account",
          "type": "address"
        }
      ],
      "name": "release",
      "outputs": [],
      "stateMutability": "nonpayable",
      "type": "function"
    },
    {
      "inputs": [
        {
          "internalType": "contract IERC20",
          "name": "token",
          "type": "address"
        },
        {
          "internalType": "address",
          "name": "account",
          "type": "address"
        }
      ],
      "name": "release",
      "outputs": [],
      "stateMutability": "nonpayable",
      "type": "function"
    },
    {
      "inputs": [
        {
          "internalType": "contract IERC721",
          "name": "token",
          "type": "address"
        },
        {
          "internalType": "address",
          "name": "account",
          "type": "address"
        }
      ],
      "name": "releaseERC721",
      "outputs": [],
      "stateMutability": "payable",
      "type": "function"
    },
    {
      "inputs": [
        {
          "internalType": "contract IERC20",
          "name": "token",
          "type": "address"
        },
        {
          "internalType": "address",
          "name": "account",
          "type": "address"
        }
      ],
      "name": "released",
      "outputs": [
        {
          "internalType": "uint256",
          "name": "",
          "type": "uint256"
        }
      ],
      "stateMutability": "view",
      "type": "function"
    },
    {
      "inputs": [
        {
          "internalType": "address",
          "name": "account",
          "type": "address"
        }
      ],
      "name": "released",
      "outputs": [
        {
          "internalType": "uint256",
          "name": "",
          "type": "uint256"
        }
      ],
      "stateMutability": "view",
      "type": "function"
    },
    {
      "inputs": [
        {
          "internalType": "contract IERC721",
          "name": "token",
          "type": "address"
        },
        {
          "internalType": "address",
          "name": "account",
          "type": "address"
        }
      ],
      "name": "releasedERC721",
      "outputs": [
        {
          "internalType": "uint256",
          "name": "",
          "type": "uint256"
        }
      ],
      "stateMutability": "view",
      "type": "function"
    },
    {
      "inputs": [
        {
          "internalType": "contract IERC721",
          "name": "token",
          "type": "address"
        },
        {
          "internalType": "uint256",
          "name": "tokenId",
          "type": "uint256"
        }
      ],
      "name": "safeTransfer",
      "outputs": [],
      "stateMutability": "payable",
      "type": "function"
    },
    {
      "inputs": [
        {
          "internalType": "address",
          "name": "account",
          "type": "address"
        }
      ],
      "name": "shares",
      "outputs": [
        {
          "internalType": "uint256",
          "name": "",
          "type": "uint256"
        }
      ],
      "stateMutability": "view",
      "type": "function"
    },
    {
      "inputs": [
        {
          "internalType": "contract IERC20",
          "name": "token",
          "type": "address"
        }
      ],
      "name": "totalReleased",
      "outputs": [
        {
          "internalType": "uint256",
          "name": "",
          "type": "uint256"
        }
      ],
      "stateMutability": "view",
      "type": "function"
    },
    {
      "inputs": [],
      "name": "totalReleased",
      "outputs": [
        {
          "internalType": "uint256",
          "name": "",
          "type": "uint256"
        }
      ],
      "stateMutability": "view",
      "type": "function"
    },
    {
      "inputs": [
        {
          "internalType": "contract IERC721",
          "name": "token",
          "type": "address"
        }
      ],
      "name": "totalReleasedERC721",
      "outputs": [
        {
          "internalType": "uint256",
          "name": "",
          "type": "uint256"
        }
      ],
      "stateMutability": "view",
      "type": "function"
    },
    {
      "inputs": [],
      "name": "totalShares",
      "outputs": [
        {
          "internalType": "uint256",
          "name": "",
          "type": "uint256"
        }
      ],
      "stateMutability": "view",
      "type": "function"
    },
    {
      "stateMutability": "payable",
      "type": "receive"
    }
  ],
  "bytecode": "0x60806040526040516200307f3803806200307f833981810160405281019062000029919062000667565b805182511462000070576040517f08c379a0000000000000000000000000000000000000000000000000000000008152600401620000679062000773565b60405180910390fd5b6000825111620000b7576040517f08c379a0000000000000000000000000000000000000000000000000000000008152600401620000ae90620007e5565b60405180910390fd5b60005b8251811015620001265762000110838281518110620000de57620000dd62000807565b5b6020026020010151838381518110620000fc57620000fb62000807565b5b60200260200101516200012f60201b60201c565b80806200011d9062000865565b915050620000ba565b50505062000ade565b600073ffffffffffffffffffffffffffffffffffffffff168273ffffffffffffffffffffffffffffffffffffffff1603620001a1576040517f08c379a0000000000000000000000000000000000000000000000000000000008152600401620001989062000928565b60405180910390fd5b60008111620001e7576040517f08c379a0000000000000000000000000000000000000000000000000000000008152600401620001de906200099a565b60405180910390fd5b6000600260008473ffffffffffffffffffffffffffffffffffffffff1673ffffffffffffffffffffffffffffffffffffffff16815260200190815260200160002054146200026c576040517f08c379a0000000000000000000000000000000000000000000000000000000008152600401620002639062000a32565b60405180910390fd5b6004829080600181540180825580915050600190039060005260206000200160009091909190916101000a81548173ffffffffffffffffffffffffffffffffffffffff021916908373ffffffffffffffffffffffffffffffffffffffff16021790555080600260008473ffffffffffffffffffffffffffffffffffffffff1673ffffffffffffffffffffffffffffffffffffffff168152602001908152602001600020819055508060005462000323919062000a54565b6000819055507f40c340f65e17194d14ddddb073d3c9f888e3cb52b5aae0c6c7706b4fbc905fac82826040516200035c92919062000ab1565b60405180910390a15050565b6000604051905090565b600080fd5b600080fd5b600080fd5b6000601f19601f8301169050919050565b7f4e487b7100000000000000000000000000000000000000000000000000000000600052604160045260246000fd5b620003cc8262000381565b810181811067ffffffffffffffff82111715620003ee57620003ed62000392565b5b80604052505050565b60006200040362000368565b9050620004118282620003c1565b919050565b600067ffffffffffffffff82111562000434576200043362000392565b5b602082029050602081019050919050565b600080fd5b600073ffffffffffffffffffffffffffffffffffffffff82169050919050565b600062000477826200044a565b9050919050565b62000489816200046a565b81146200049557600080fd5b50565b600081519050620004a9816200047e565b92915050565b6000620004c6620004c08462000416565b620003f7565b90508083825260208201905060208402830185811115620004ec57620004eb62000445565b5b835b8181101562000519578062000504888262000498565b845260208401935050602081019050620004ee565b5050509392505050565b600082601f8301126200053b576200053a6200037c565b5b81516200054d848260208601620004af565b91505092915050565b600067ffffffffffffffff82111562000574576200057362000392565b5b602082029050602081019050919050565b6000819050919050565b6200059a8162000585565b8114620005a657600080fd5b50565b600081519050620005ba816200058f565b92915050565b6000620005d7620005d18462000556565b620003f7565b90508083825260208201905060208402830185811115620005fd57620005fc62000445565b5b835b818110156200062a5780620006158882620005a9565b845260208401935050602081019050620005ff565b5050509392505050565b600082601f8301126200064c576200064b6200037c565b5b81516200065e848260208601620005c0565b91505092915050565b6000806040838503121562000681576200068062000372565b5b600083015167ffffffffffffffff811115620006a257620006a162000377565b5b620006b08582860162000523565b925050602083015167ffffffffffffffff811115620006d457620006d362000377565b5b620006e28582860162000634565b9150509250929050565b600082825260208201905092915050565b7f5061796d656e7453706c69747465723a2070617965657320616e64207368617260008201527f6573206c656e677468206d69736d617463680000000000000000000000000000602082015250565b60006200075b603283620006ec565b91506200076882620006fd565b604082019050919050565b600060208201905081810360008301526200078e816200074c565b9050919050565b7f5061796d656e7453706c69747465723a206e6f20706179656573000000000000600082015250565b6000620007cd601a83620006ec565b9150620007da8262000795565b602082019050919050565b600060208201905081810360008301526200080081620007be565b9050919050565b7f4e487b7100000000000000000000000000000000000000000000000000000000600052603260045260246000fd5b7f4e487b7100000000000000000000000000000000000000000000000000000000600052601160045260246000fd5b6000620008728262000585565b91507fffffffffffffffffffffffffffffffffffffffffffffffffffffffffffffffff8203620008a757620008a662000836565b5b600182019050919050565b7f5061796d656e7453706c69747465723a206163636f756e74206973207468652060008201527f7a65726f20616464726573730000000000000000000000000000000000000000602082015250565b600062000910602c83620006ec565b91506200091d82620008b2565b604082019050919050565b60006020820190508181036000830152620009438162000901565b9050919050565b7f5061796d656e7453706c69747465723a20736861726573206172652030000000600082015250565b600062000982601d83620006ec565b91506200098f826200094a565b602082019050919050565b60006020820190508181036000830152620009b58162000973565b9050919050565b7f5061796d656e7453706c69747465723a206163636f756e7420616c726561647960008201527f2068617320736861726573000000000000000000000000000000000000000000602082015250565b600062000a1a602b83620006ec565b915062000a2782620009bc565b604082019050919050565b6000602082019050818103600083015262000a4d8162000a0b565b9050919050565b600062000a618262000585565b915062000a6e8362000585565b925082820190508082111562000a895762000a8862000836565b5b92915050565b62000a9a816200046a565b82525050565b62000aab8162000585565b82525050565b600060408201905062000ac8600083018562000a8f565b62000ad7602083018462000aa0565b9392505050565b6125918062000aee6000396000f3fe6080604052600436106101015760003560e01c80638b83209b11610095578063c45ac05011610064578063c45ac050146103ad578063ce7c2ac2146103ea578063cea9ec4e14610427578063d79779b214610464578063e33b7de3146104a157610148565b80638b83209b146102b95780639852595c146102f6578063a3f8eace14610333578063bf89e1d91461037057610148565b80633a98ef39116100d15780633a98ef391461020c578063406072a914610237578063423f6cef1461027457806348b750441461029057610148565b8062b08fd81461014d578063150b7a021461018a57806319165587146101c757806330066b79146101f057610148565b36610148577f6ef95f06320e7a25a04a175ca677b7052bdd97131872c2192525a629f51be77061012f6104cc565b3460405161013e9291906117f7565b60405180910390a1005b600080fd5b34801561015957600080fd5b50610174600480360381019061016f9190611894565b6104d4565b60405161018191906118d4565b60405180910390f35b34801561019657600080fd5b506101b160048036038101906101ac9190611980565b61054c565b6040516101be9190611a43565b60405180910390f35b3480156101d357600080fd5b506101ee60048036038101906101e99190611a9c565b610600565b005b61020a60048036038101906102059190611894565b61077f565b005b34801561021857600080fd5b50610221610cd9565b60405161022e91906118d4565b60405180910390f35b34801561024357600080fd5b5061025e60048036038101906102599190611b07565b610ce2565b60405161026b91906118d4565b60405180910390f35b61028e60048036038101906102899190611b47565b610d69565b005b34801561029c57600080fd5b506102b760048036038101906102b29190611b07565b610ddc565b005b3480156102c557600080fd5b506102e060048036038101906102db9190611b87565b610fef565b6040516102ed9190611bb4565b60405180910390f35b34801561030257600080fd5b5061031d60048036038101906103189190611bcf565b611037565b60405161032a91906118d4565b60405180910390f35b34801561033f57600080fd5b5061035a60048036038101906103559190611bcf565b611080565b60405161036791906118d4565b60405180910390f35b34801561037c57600080fd5b5061039760048036038101906103929190611894565b6110b3565b6040516103a491906118d4565b60405180910390f35b3480156103b957600080fd5b506103d460048036038101906103cf9190611b07565b61113a565b6040516103e191906118d4565b60405180910390f35b3480156103f657600080fd5b50610411600480360381019061040c9190611bcf565b6111e9565b60405161041e91906118d4565b60405180910390f35b34801561043357600080fd5b5061044e60048036038101906104499190611bfc565b611232565b60405161045b91906118d4565b60405180910390f35b34801561047057600080fd5b5061048b60048036038101906104869190611c29565b61127b565b60405161049891906118d4565b60405180910390f35b3480156104ad57600080fd5b506104b66112c4565b6040516104c391906118d4565b60405180910390f35b600033905090565b6000806104e084611232565b600760008673ffffffffffffffffffffffffffffffffffffffff1673ffffffffffffffffffffffffffffffffffffffff1681526020019081526020016000208054905061052d9190611c85565b9050610543838261053e87876110b3565b6112ce565b91505092915050565b6000600760003373ffffffffffffffffffffffffffffffffffffffff1673ffffffffffffffffffffffffffffffffffffffff1681526020019081526020016000208490806001815401808255809150506001900390600052602060002001600090919091909150557f35a641d6803b18b3c2a97b78c27d31dab914e9626b63b48fb9c5747c93a3f96d33856040516105e59291906117f7565b60405180910390a163150b7a0260e01b905095945050505050565b6000600260008373ffffffffffffffffffffffffffffffffffffffff1673ffffffffffffffffffffffffffffffffffffffff1681526020019081526020016000205411610682576040517f08c379a000000000000000000000000000000000000000000000000000000000815260040161067990611d3c565b60405180910390fd5b600061068d82611080565b9050600081036106d2576040517f08c379a00000000000000000000000000000000000000000000000000000000081526004016106c990611dce565b60405180910390fd5b80600160008282546106e49190611c85565b9250508190555080600360008473ffffffffffffffffffffffffffffffffffffffff1673ffffffffffffffffffffffffffffffffffffffff16815260200190815260200160002060008282540192505081905550610742828261133c565b7fdf20fd1e76bc69d672e4814fafb2c449bba3a5369d8359adf9e05e6fde87b0568282604051610773929190611e4d565b60405180910390a15050565b6000600260008373ffffffffffffffffffffffffffffffffffffffff1673ffffffffffffffffffffffffffffffffffffffff1681526020019081526020016000205411610801576040517f08c379a00000000000000000000000000000000000000000000000000000000081526004016107f890611d3c565b60405180910390fd5b60008054600054600760008673ffffffffffffffffffffffffffffffffffffffff1673ffffffffffffffffffffffffffffffffffffffff168152602001908152602001600020805490506108559190611ea5565b600760008673ffffffffffffffffffffffffffffffffffffffff1673ffffffffffffffffffffffffffffffffffffffff168152602001908152602001600020805490506108a29190611ed6565b6108ac9190611ea5565b146108ec576040517f08c379a00000000000000000000000000000000000000000000000000000000081526004016108e390611f7c565b60405180910390fd5b60006108f883836104d4565b90506000810361093d576040517f08c379a000000000000000000000000000000000000000000000000000000000815260040161093490611dce565b60405180910390fd5b80600860008573ffffffffffffffffffffffffffffffffffffffff1673ffffffffffffffffffffffffffffffffffffffff168152602001908152602001600020600082825461098c9190611c85565b9250508190555080600960008573ffffffffffffffffffffffffffffffffffffffff1673ffffffffffffffffffffffffffffffffffffffff16815260200190815260200160002060008473ffffffffffffffffffffffffffffffffffffffff1673ffffffffffffffffffffffffffffffffffffffff16815260200190815260200160002060008282540192505081905550600081600760008673ffffffffffffffffffffffffffffffffffffffff1673ffffffffffffffffffffffffffffffffffffffff16815260200190815260200160002080549050610a6d9190611ed6565b67ffffffffffffffff811115610a8657610a85611f9c565b5b604051908082528060200260200182016040528015610ab45781602001602082028036833780820191505090505b509050600080600090505b600760008773ffffffffffffffffffffffffffffffffffffffff1673ffffffffffffffffffffffffffffffffffffffff16815260200190815260200160002080549050811015610c7d5783811015610be0578573ffffffffffffffffffffffffffffffffffffffff166342842e0e3087600760008b73ffffffffffffffffffffffffffffffffffffffff1673ffffffffffffffffffffffffffffffffffffffff1681526020019081526020016000208581548110610b8057610b7f611fcb565b5b90600052602060002001546040518463ffffffff1660e01b8152600401610ba993929190611ffa565b600060405180830381600087803b158015610bc357600080fd5b505af1158015610bd7573d6000803e3d6000fd5b50505050610c6a565b600760008773ffffffffffffffffffffffffffffffffffffffff1673ffffffffffffffffffffffffffffffffffffffff1681526020019081526020016000208181548110610c3157610c30611fcb565b5b9060005260206000200154838381518110610c4f57610c4e611fcb565b5b6020026020010181815250508180610c6690612031565b9250505b8080610c7590612031565b915050610abf565b5081600760008773ffffffffffffffffffffffffffffffffffffffff1673ffffffffffffffffffffffffffffffffffffffff1681526020019081526020016000209080519060200190610cd1929190611733565b505050505050565b60008054905090565b6000600660008473ffffffffffffffffffffffffffffffffffffffff1673ffffffffffffffffffffffffffffffffffffffff16815260200190815260200160002060008373ffffffffffffffffffffffffffffffffffffffff1673ffffffffffffffffffffffffffffffffffffffff16815260200190815260200160002054905092915050565b8173ffffffffffffffffffffffffffffffffffffffff166342842e0e3030846040518463ffffffff1660e01b8152600401610da693929190611ffa565b600060405180830381600087803b158015610dc057600080fd5b505af1158015610dd4573d6000803e3d6000fd5b505050505050565b6000600260008373ffffffffffffffffffffffffffffffffffffffff1673ffffffffffffffffffffffffffffffffffffffff1681526020019081526020016000205411610e5e576040517f08c379a0000000000000000000000000000000000000000000000000000000008152600401610e5590611d3c565b60405180910390fd5b6000610e6a838361113a565b905060008103610eaf576040517f08c379a0000000000000000000000000000000000000000000000000000000008152600401610ea690611dce565b60405180910390fd5b80600560008573ffffffffffffffffffffffffffffffffffffffff1673ffffffffffffffffffffffffffffffffffffffff1681526020019081526020016000206000828254610efe9190611c85565b9250508190555080600660008573ffffffffffffffffffffffffffffffffffffffff1673ffffffffffffffffffffffffffffffffffffffff16815260200190815260200160002060008473ffffffffffffffffffffffffffffffffffffffff1673ffffffffffffffffffffffffffffffffffffffff16815260200190815260200160002060008282540192505081905550610f9a838383611430565b8273ffffffffffffffffffffffffffffffffffffffff167f3be5b7a71e84ed12875d241991c70855ac5817d847039e17a9d895c1ceb0f18a8383604051610fe29291906117f7565b60405180910390a2505050565b60006004828154811061100557611004611fcb565b5b9060005260206000200160009054906101000a900473ffffffffffffffffffffffffffffffffffffffff169050919050565b6000600360008373ffffffffffffffffffffffffffffffffffffffff1673ffffffffffffffffffffffffffffffffffffffff168152602001908152602001600020549050919050565b60008061108b6112c4565b476110969190611c85565b90506110ab83826110a686611037565b6112ce565b915050919050565b6000600960008473ffffffffffffffffffffffffffffffffffffffff1673ffffffffffffffffffffffffffffffffffffffff16815260200190815260200160002060008373ffffffffffffffffffffffffffffffffffffffff1673ffffffffffffffffffffffffffffffffffffffff16815260200190815260200160002054905092915050565b6000806111468461127b565b8473ffffffffffffffffffffffffffffffffffffffff166370a08231306040518263ffffffff1660e01b815260040161117f9190611bb4565b602060405180830381865afa15801561119c573d6000803e3d6000fd5b505050506040513d601f19601f820116820180604052508101906111c0919061208e565b6111ca9190611c85565b90506111e083826111db8787610ce2565b6112ce565b91505092915050565b6000600260008373ffffffffffffffffffffffffffffffffffffffff1673ffffffffffffffffffffffffffffffffffffffff168152602001908152602001600020549050919050565b6000600860008373ffffffffffffffffffffffffffffffffffffffff1673ffffffffffffffffffffffffffffffffffffffff168152602001908152602001600020549050919050565b6000600560008373ffffffffffffffffffffffffffffffffffffffff1673ffffffffffffffffffffffffffffffffffffffff168152602001908152602001600020549050919050565b6000600154905090565b600081600054600260008773ffffffffffffffffffffffffffffffffffffffff1673ffffffffffffffffffffffffffffffffffffffff168152602001908152602001600020548561131f91906120bb565b61132991906120fd565b6113339190611ed6565b90509392505050565b8047101561137f576040517f08c379a00000000000000000000000000000000000000000000000000000000081526004016113769061217a565b60405180910390fd5b60008273ffffffffffffffffffffffffffffffffffffffff16826040516113a5906121cb565b60006040518083038185875af1925050503d80600081146113e2576040519150601f19603f3d011682016040523d82523d6000602084013e6113e7565b606091505b505090508061142b576040517f08c379a000000000000000000000000000000000000000000000000000000000815260040161142290612252565b60405180910390fd5b505050565b6114b18363a9059cbb60e01b848460405160240161144f9291906117f7565b604051602081830303815290604052907bffffffffffffffffffffffffffffffffffffffffffffffffffffffff19166020820180517bffffffffffffffffffffffffffffffffffffffffffffffffffffffff83818316178352505050506114b6565b505050565b6000611518826040518060400160405280602081526020017f5361666545524332303a206c6f772d6c6576656c2063616c6c206661696c65648152508573ffffffffffffffffffffffffffffffffffffffff1661157d9092919063ffffffff16565b9050600081511115611578578080602001905181019061153891906122aa565b611577576040517f08c379a000000000000000000000000000000000000000000000000000000000815260040161156e90612349565b60405180910390fd5b5b505050565b606061158c8484600085611595565b90509392505050565b6060824710156115da576040517f08c379a00000000000000000000000000000000000000000000000000000000081526004016115d1906123db565b60405180910390fd5b6115e3856116a9565b611622576040517f08c379a000000000000000000000000000000000000000000000000000000000815260040161161990612447565b60405180910390fd5b6000808673ffffffffffffffffffffffffffffffffffffffff16858760405161164b91906124cd565b60006040518083038185875af1925050503d8060008114611688576040519150601f19603f3d011682016040523d82523d6000602084013e61168d565b606091505b509150915061169d8282866116cc565b92505050949350505050565b6000808273ffffffffffffffffffffffffffffffffffffffff163b119050919050565b606083156116dc5782905061172c565b6000835111156116ef5782518084602001fd5b816040517f08c379a00000000000000000000000000000000000000000000000000000000081526004016117239190612539565b60405180910390fd5b9392505050565b82805482825590600052602060002090810192821561176f579160200282015b8281111561176e578251825591602001919060010190611753565b5b50905061177c9190611780565b5090565b5b80821115611799576000816000905550600101611781565b5090565b600073ffffffffffffffffffffffffffffffffffffffff82169050919050565b60006117c88261179d565b9050919050565b6117d8816117bd565b82525050565b6000819050919050565b6117f1816117de565b82525050565b600060408201905061180c60008301856117cf565b61181960208301846117e8565b9392505050565b600080fd5b600080fd5b6000611835826117bd565b9050919050565b6118458161182a565b811461185057600080fd5b50565b6000813590506118628161183c565b92915050565b611871816117bd565b811461187c57600080fd5b50565b60008135905061188e81611868565b92915050565b600080604083850312156118ab576118aa611820565b5b60006118b985828601611853565b92505060206118ca8582860161187f565b9150509250929050565b60006020820190506118e960008301846117e8565b92915050565b6118f8816117de565b811461190357600080fd5b50565b600081359050611915816118ef565b92915050565b600080fd5b600080fd5b600080fd5b60008083601f8401126119405761193f61191b565b5b8235905067ffffffffffffffff81111561195d5761195c611920565b5b60208301915083600182028301111561197957611978611925565b5b9250929050565b60008060008060006080868803121561199c5761199b611820565b5b60006119aa8882890161187f565b95505060206119bb8882890161187f565b94505060406119cc88828901611906565b935050606086013567ffffffffffffffff8111156119ed576119ec611825565b5b6119f98882890161192a565b92509250509295509295909350565b60007fffffffff0000000000000000000000000000000000000000000000000000000082169050919050565b611a3d81611a08565b82525050565b6000602082019050611a586000830184611a34565b92915050565b6000611a698261179d565b9050919050565b611a7981611a5e565b8114611a8457600080fd5b50565b600081359050611a9681611a70565b92915050565b600060208284031215611ab257611ab1611820565b5b6000611ac084828501611a87565b91505092915050565b6000611ad4826117bd565b9050919050565b611ae481611ac9565b8114611aef57600080fd5b50565b600081359050611b0181611adb565b92915050565b60008060408385031215611b1e57611b1d611820565b5b6000611b2c85828601611af2565b9250506020611b3d8582860161187f565b9150509250929050565b60008060408385031215611b5e57611b5d611820565b5b6000611b6c85828601611853565b9250506020611b7d85828601611906565b9150509250929050565b600060208284031215611b9d57611b9c611820565b5b6000611bab84828501611906565b91505092915050565b6000602082019050611bc960008301846117cf565b92915050565b600060208284031215611be557611be4611820565b5b6000611bf38482850161187f565b91505092915050565b600060208284031215611c1257611c11611820565b5b6000611c2084828501611853565b91505092915050565b600060208284031215611c3f57611c3e611820565b5b6000611c4d84828501611af2565b91505092915050565b7f4e487b7100000000000000000000000000000000000000000000000000000000600052601160045260246000fd5b6000611c90826117de565b9150611c9b836117de565b9250828201905080821115611cb357611cb2611c56565b5b92915050565b600082825260208201905092915050565b7f5061796d656e7453706c69747465723a206163636f756e7420686173206e6f2060008201527f7368617265730000000000000000000000000000000000000000000000000000602082015250565b6000611d26602683611cb9565b9150611d3182611cca565b604082019050919050565b60006020820190508181036000830152611d5581611d19565b9050919050565b7f5061796d656e7453706c69747465723a206163636f756e74206973206e6f742060008201527f647565207061796d656e74000000000000000000000000000000000000000000602082015250565b6000611db8602b83611cb9565b9150611dc382611d5c565b604082019050919050565b60006020820190508181036000830152611de781611dab565b9050919050565b6000819050919050565b6000611e13611e0e611e098461179d565b611dee565b61179d565b9050919050565b6000611e2582611df8565b9050919050565b6000611e3782611e1a565b9050919050565b611e4781611e2c565b82525050565b6000604082019050611e626000830185611e3e565b611e6f60208301846117e8565b9392505050565b7f4e487b7100000000000000000000000000000000000000000000000000000000600052601260045260246000fd5b6000611eb0826117de565b9150611ebb836117de565b925082611ecb57611eca611e76565b5b828206905092915050565b6000611ee1826117de565b9150611eec836117de565b9250828203905081811115611f0457611f03611c56565b5b92915050565b7f5061796d656e7453706c69747465723a2063616e7420646576696465206e667460008201527f7300000000000000000000000000000000000000000000000000000000000000602082015250565b6000611f66602183611cb9565b9150611f7182611f0a565b604082019050919050565b60006020820190508181036000830152611f9581611f59565b9050919050565b7f4e487b7100000000000000000000000000000000000000000000000000000000600052604160045260246000fd5b7f4e487b7100000000000000000000000000000000000000000000000000000000600052603260045260246000fd5b600060608201905061200f60008301866117cf565b61201c60208301856117cf565b61202960408301846117e8565b949350505050565b600061203c826117de565b91507fffffffffffffffffffffffffffffffffffffffffffffffffffffffffffffffff820361206e5761206d611c56565b5b600182019050919050565b600081519050612088816118ef565b92915050565b6000602082840312156120a4576120a3611820565b5b60006120b284828501612079565b91505092915050565b60006120c6826117de565b91506120d1836117de565b92508282026120df816117de565b915082820484148315176120f6576120f5611c56565b5b5092915050565b6000612108826117de565b9150612113836117de565b92508261212357612122611e76565b5b828204905092915050565b7f416464726573733a20696e73756666696369656e742062616c616e6365000000600082015250565b6000612164601d83611cb9565b915061216f8261212e565b602082019050919050565b6000602082019050818103600083015261219381612157565b9050919050565b600081905092915050565b50565b60006121b560008361219a565b91506121c0826121a5565b600082019050919050565b60006121d6826121a8565b9150819050919050565b7f416464726573733a20756e61626c6520746f2073656e642076616c75652c207260008201527f6563697069656e74206d61792068617665207265766572746564000000000000602082015250565b600061223c603a83611cb9565b9150612247826121e0565b604082019050919050565b6000602082019050818103600083015261226b8161222f565b9050919050565b60008115159050919050565b61228781612272565b811461229257600080fd5b50565b6000815190506122a48161227e565b92915050565b6000602082840312156122c0576122bf611820565b5b60006122ce84828501612295565b91505092915050565b7f5361666545524332303a204552433230206f7065726174696f6e20646964206e60008201527f6f74207375636365656400000000000000000000000000000000000000000000602082015250565b6000612333602a83611cb9565b915061233e826122d7565b604082019050919050565b6000602082019050818103600083015261236281612326565b9050919050565b7f416464726573733a20696e73756666696369656e742062616c616e636520666f60008201527f722063616c6c0000000000000000000000000000000000000000000000000000602082015250565b60006123c5602683611cb9565b91506123d082612369565b604082019050919050565b600060208201905081810360008301526123f4816123b8565b9050919050565b7f416464726573733a2063616c6c20746f206e6f6e2d636f6e7472616374000000600082015250565b6000612431601d83611cb9565b915061243c826123fb565b602082019050919050565b6000602082019050818103600083015261246081612424565b9050919050565b600081519050919050565b60005b83811015612490578082015181840152602081019050612475565b60008484015250505050565b60006124a782612467565b6124b1818561219a565b93506124c1818560208601612472565b80840191505092915050565b60006124d9828461249c565b915081905092915050565b600081519050919050565b6000601f19601f8301169050919050565b600061250b826124e4565b6125158185611cb9565b9350612525818560208601612472565b61252e816124ef565b840191505092915050565b600060208201905081810360008301526125538184612500565b90509291505056fea2646970667358221220cbf67f3da3141927e84cd1add9332d5b1fa5eae9d662b77b73c77750d004faa464736f6c63430008110033",
  "linkReferences": {},
  "deployedLinkReferences": {}
}